{
  "_format": "hh-sol-artifact-1",
  "contractName": "VeraGigLendingPool",
  "sourceName": "contracts/VeraGigLendingPool.sol",
  "abi": [
    {
      "inputs": [
        {
          "internalType": "address",
          "name": "_gDollar",
          "type": "address"
        },
        {
          "internalType": "address",
          "name": "_scoreRegistry",
          "type": "address"
        }
      ],
      "stateMutability": "nonpayable",
      "type": "constructor"
    },
    {
      "inputs": [
        {
          "internalType": "address",
          "name": "owner",
          "type": "address"
        }
      ],
      "name": "OwnableInvalidOwner",
      "type": "error"
    },
    {
      "inputs": [
        {
          "internalType": "address",
          "name": "account",
          "type": "address"
        }
      ],
      "name": "OwnableUnauthorizedAccount",
      "type": "error"
    },
    {
      "inputs": [],
      "name": "ReentrancyGuardReentrantCall",
      "type": "error"
    },
    {
      "inputs": [
        {
          "internalType": "address",
          "name": "token",
          "type": "address"
        }
      ],
      "name": "SafeERC20FailedOperation",
      "type": "error"
    },
    {
      "anonymous": false,
      "inputs": [
        {
          "indexed": true,
          "internalType": "bytes32",
          "name": "loanId",
          "type": "bytes32"
        },
        {
          "indexed": true,
          "internalType": "address",
          "name": "worker",
          "type": "address"
        }
      ],
      "name": "LoanFullyRepaid",
      "type": "event"
    },
    {
      "anonymous": false,
      "inputs": [
        {
          "indexed": true,
          "internalType": "bytes32",
          "name": "loanId",
          "type": "bytes32"
        },
        {
          "indexed": true,
          "internalType": "address",
          "name": "worker",
          "type": "address"
        },
        {
          "indexed": false,
          "internalType": "uint256",
          "name": "amountWei",
          "type": "uint256"
        }
      ],
      "name": "LoanIssued",
      "type": "event"
    },
    {
      "anonymous": false,
      "inputs": [
        {
          "indexed": true,
          "internalType": "bytes32",
          "name": "loanId",
          "type": "bytes32"
        },
        {
          "indexed": false,
          "internalType": "uint256",
          "name": "deductionWei",
          "type": "uint256"
        },
        {
          "indexed": false,
          "internalType": "uint256",
          "name": "remainingWei",
          "type": "uint256"
        }
      ],
      "name": "LoanRepayment",
      "type": "event"
    },
    {
      "anonymous": false,
      "inputs": [
        {
          "indexed": true,
          "internalType": "address",
          "name": "previousOwner",
          "type": "address"
        },
        {
          "indexed": true,
          "internalType": "address",
          "name": "newOwner",
          "type": "address"
        }
      ],
      "name": "OwnershipTransferred",
      "type": "event"
    },
    {
      "anonymous": false,
      "inputs": [
        {
          "indexed": true,
          "internalType": "address",
          "name": "depositor",
          "type": "address"
        },
        {
          "indexed": false,
          "internalType": "uint256",
          "name": "amountWei",
          "type": "uint256"
        }
      ],
      "name": "PoolDeposit",
      "type": "event"
    },
    {
      "inputs": [],
      "name": "BUILDER_DEDUCTION",
      "outputs": [
        {
          "internalType": "uint8",
          "name": "",
          "type": "uint8"
        }
      ],
      "stateMutability": "view",
      "type": "function"
    },
    {
      "inputs": [],
      "name": "BUILDER_MAX",
      "outputs": [
        {
          "internalType": "uint256",
          "name": "",
          "type": "uint256"
        }
      ],
      "stateMutability": "view",
      "type": "function"
    },
    {
      "inputs": [],
      "name": "PRIME_DEDUCTION",
      "outputs": [
        {
          "internalType": "uint8",
          "name": "",
          "type": "uint8"
        }
      ],
      "stateMutability": "view",
      "type": "function"
    },
    {
      "inputs": [],
      "name": "PRIME_MAX",
      "outputs": [
        {
          "internalType": "uint256",
          "name": "",
          "type": "uint256"
        }
      ],
      "stateMutability": "view",
      "type": "function"
    },
    {
      "inputs": [],
      "name": "STARTER_DEDUCTION",
      "outputs": [
        {
          "internalType": "uint8",
          "name": "",
          "type": "uint8"
        }
      ],
      "stateMutability": "view",
      "type": "function"
    },
    {
      "inputs": [],
      "name": "STARTER_MAX",
      "outputs": [
        {
          "internalType": "uint256",
          "name": "",
          "type": "uint256"
        }
      ],
      "stateMutability": "view",
      "type": "function"
    },
    {
      "inputs": [
        {
          "internalType": "address",
          "name": "",
          "type": "address"
        }
      ],
      "name": "activeLoanId",
      "outputs": [
        {
          "internalType": "bytes32",
          "name": "",
          "type": "bytes32"
        }
      ],
      "stateMutability": "view",
      "type": "function"
    },
    {
      "inputs": [
        {
          "internalType": "address",
          "name": "",
          "type": "address"
        }
      ],
      "name": "authorizedRepayers",
      "outputs": [
        {
          "internalType": "bool",
          "name": "",
          "type": "bool"
        }
      ],
      "stateMutability": "view",
      "type": "function"
    },
    {
      "inputs": [
        {
          "internalType": "address",
          "name": "worker",
          "type": "address"
        }
      ],
      "name": "checkEligibility",
      "outputs": [
        {
          "internalType": "bool",
          "name": "isEligible",
          "type": "bool"
        },
        {
          "internalType": "uint256",
          "name": "maxLoanWei",
          "type": "uint256"
        },
        {
          "internalType": "uint8",
          "name": "repaymentPct",
          "type": "uint8"
        },
        {
          "internalType": "string",
          "name": "tier",
          "type": "string"
        },
        {
          "internalType": "string",
          "name": "reason",
          "type": "string"
        }
      ],
      "stateMutability": "view",
      "type": "function"
    },
    {
      "inputs": [
        {
          "internalType": "uint256",
          "name": "amountWei",
          "type": "uint256"
        }
      ],
      "name": "deposit",
      "outputs": [],
      "stateMutability": "nonpayable",
      "type": "function"
    },
    {
      "inputs": [],
      "name": "gDollar",
      "outputs": [
        {
          "internalType": "contract IERC20",
          "name": "",
          "type": "address"
        }
      ],
      "stateMutability": "view",
      "type": "function"
    },
    {
      "inputs": [
        {
          "internalType": "bytes32",
          "name": "loanId",
          "type": "bytes32"
        }
      ],
      "name": "getLoan",
      "outputs": [
        {
          "components": [
            {
              "internalType": "bytes32",
              "name": "id",
              "type": "bytes32"
            },
            {
              "internalType": "address",
              "name": "worker",
              "type": "address"
            },
            {
              "internalType": "uint256",
              "name": "principalWei",
              "type": "uint256"
            },
            {
              "internalType": "uint256",
              "name": "remainingWei",
              "type": "uint256"
            },
            {
              "internalType": "uint8",
              "name": "repaymentDeductionPct",
              "type": "uint8"
            },
            {
              "internalType": "uint256",
              "name": "createdAt",
              "type": "uint256"
            },
            {
              "internalType": "bool",
              "name": "fullyRepaid",
              "type": "bool"
            }
          ],
          "internalType": "struct VeraGigLendingPool.Loan",
          "name": "",
          "type": "tuple"
        }
      ],
      "stateMutability": "view",
      "type": "function"
    },
    {
      "inputs": [
        {
          "internalType": "bytes32",
          "name": "",
          "type": "bytes32"
        }
      ],
      "name": "loans",
      "outputs": [
        {
          "internalType": "bytes32",
          "name": "id",
          "type": "bytes32"
        },
        {
          "internalType": "address",
          "name": "worker",
          "type": "address"
        },
        {
          "internalType": "uint256",
          "name": "principalWei",
          "type": "uint256"
        },
        {
          "internalType": "uint256",
          "name": "remainingWei",
          "type": "uint256"
        },
        {
          "internalType": "uint8",
          "name": "repaymentDeductionPct",
          "type": "uint8"
        },
        {
          "internalType": "uint256",
          "name": "createdAt",
          "type": "uint256"
        },
        {
          "internalType": "bool",
          "name": "fullyRepaid",
          "type": "bool"
        }
      ],
      "stateMutability": "view",
      "type": "function"
    },
    {
      "inputs": [],
      "name": "owner",
      "outputs": [
        {
          "internalType": "address",
          "name": "",
          "type": "address"
        }
      ],
      "stateMutability": "view",
      "type": "function"
    },
    {
      "inputs": [
        {
          "internalType": "bytes32",
          "name": "loanId",
          "type": "bytes32"
        },
        {
          "internalType": "uint256",
          "name": "payoutAmountWei",
          "type": "uint256"
        }
      ],
      "name": "processRepayment",
      "outputs": [
        {
          "internalType": "uint256",
          "name": "deductionWei",
          "type": "uint256"
        }
      ],
      "stateMutability": "nonpayable",
      "type": "function"
    },
    {
      "inputs": [],
      "name": "renounceOwnership",
      "outputs": [],
      "stateMutability": "nonpayable",
      "type": "function"
    },
    {
      "inputs": [
        {
          "internalType": "uint256",
          "name": "requestedWei",
          "type": "uint256"
        },
        {
          "internalType": "string",
          "name": "purpose",
          "type": "string"
        }
      ],
      "name": "requestLoan",
      "outputs": [
        {
          "internalType": "bytes32",
          "name": "loanId",
          "type": "bytes32"
        }
      ],
      "stateMutability": "nonpayable",
      "type": "function"
    },
    {
      "inputs": [],
      "name": "scoreRegistry",
      "outputs": [
        {
          "internalType": "contract IVeraScoreRegistry",
          "name": "",
          "type": "address"
        }
      ],
      "stateMutability": "view",
      "type": "function"
    },
    {
      "inputs": [
        {
          "internalType": "address",
          "name": "repayer",
          "type": "address"
        },
        {
          "internalType": "bool",
          "name": "authorized",
          "type": "bool"
        }
      ],
      "name": "setAuthorizedRepayer",
      "outputs": [],
      "stateMutability": "nonpayable",
      "type": "function"
    },
    {
      "inputs": [],
      "name": "totalPoolBalance",
      "outputs": [
        {
          "internalType": "uint256",
          "name": "",
          "type": "uint256"
        }
      ],
      "stateMutability": "view",
      "type": "function"
    },
    {
      "inputs": [
        {
          "internalType": "address",
          "name": "newOwner",
          "type": "address"
        }
      ],
      "name": "transferOwnership",
      "outputs": [],
      "stateMutability": "nonpayable",
      "type": "function"
    }
  ],
  "bytecode": "0x60a06040523480156200001157600080fd5b506040516200166a3803806200166a833981016040819052620000349162000121565b33806200005b57604051631e4fbdf760e01b81526000600482015260240160405180910390fd5b6200006681620000b4565b5060017f9b779b17422d0df92223018b32b4d1fa46e071723d6817e2486d003becc55f00556001600160a01b03918216608052600180546001600160a01b0319169190921617905562000159565b600080546001600160a01b038381166001600160a01b0319831681178455604051919092169283917f8be0079c531659141344cd1fd0a4f28419497f9722a3daafe3b4186f6b6457e09190a35050565b80516001600160a01b03811681146200011c57600080fd5b919050565b600080604083850312156200013557600080fd5b620001408362000104565b9150620001506020840162000104565b90509250929050565b6080516114e762000183600039600081816101410152818161076f0152610baa01526114e76000f3fe608060405234801561001057600080fd5b50600436106101375760003560e01c80638932f5f7116100b8578063adac0f0a1161007c578063adac0f0a146103b7578063b6b55f25146103c7578063c4a90815146103da578063e5c1ae6714610479578063eff1214714610489578063f2fde38b1461049c57600080fd5b80638932f5f7146102505780638da5cb5b1461036b5780638f708d9b1461037c578063919a3ece1461038f578063a40aec991461039757600080fd5b80635b1d47c9116100ff5780635b1d47c9146101cc5780636c79e167146101dc578063715018a6146101ef5780637723bafb146101f95780637a110a1d1461021d57600080fd5b806317716ef21461013c578063179ef85314610180578063267512c31461019a5780633eb8104a146101a25780635026d63e146101b5575b600080fd5b6101637f000000000000000000000000000000000000000000000000000000000000000081565b6040516001600160a01b0390911681526020015b60405180910390f35b610188601e81565b60405160ff9091168152602001610177565b610188600f81565b600154610163906001600160a01b031681565b6101be60055481565b604051908152602001610177565b6101be680ad78ebc5ac620000081565b6101be6101ea366004611084565b6104af565b6101f76107ee565b005b61020c61020736600461111c565b610802565b604051610177959493929190611187565b61024061022b36600461111c565b60046020526000908152604090205460ff1681565b6040519015158152602001610177565b61030c61025e3660046111cf565b6040805160e081018252600080825260208201819052918101829052606081018290526080810182905260a0810182905260c081019190915250600090815260036020818152604092839020835160e0810185528154815260018201546001600160a01b031692810192909252600281015493820193909352908201546060820152600482015460ff9081166080830152600583015460a0830152600690920154909116151560c082015290565b6040516101779190815181526020808301516001600160a01b031690820152604080830151908201526060808301519082015260808083015160ff169082015260a0808301519082015260c09182015115159181019190915260e00190565b6000546001600160a01b0316610163565b6101f761038a3660046111f6565b610b62565b610188601481565b6101be6103a536600461111c565b60026020526000908152604090205481565b6101be6802b5e3af16b188000081565b6101f76103d53660046111cf565b610b95565b6104376103e83660046111cf565b6003602081905260009182526040909120805460018201546002830154938301546004840154600585015460069095015493956001600160a01b03909316949293919260ff9182169290911687565b604080519788526001600160a01b03909616602088015294860193909352606085019190915260ff16608084015260a0830152151560c082015260e001610177565b6101be681b1ae4d6e2ef50000081565b6101be61049736600461122d565b610c38565b6101f76104aa36600461111c565b610e32565b60006104b9610e6d565b33600090815260026020526040902054156105115760405162461bcd60e51b81526020600482015260136024820152724c4f414e5f414c52454144595f41435449564560681b60448201526064015b60405180910390fd5b604051637723bafb60e01b8152336004820152600090819081903090637723bafb90602401600060405180830381865afa158015610553573d6000803e3d6000fd5b505050506040513d6000823e601f3d908101601f1916820160405261057b91908101906112ed565b5050925092509250826105bf5760405162461bcd60e51b815260206004820152600c60248201526b4e6f7420656c696769626c6560a01b6044820152606401610508565b818711156106025760405162461bcd60e51b815260206004820152601060248201526f22bc31b2b2b2399036b0bc103637b0b760811b6044820152606401610508565b8660055410156106545760405162461bcd60e51b815260206004820152601b60248201527f504f4f4c5f494e53554646494349454e545f4c495155494449545900000000006044820152606401610508565b3342878760405160200161066b9493929190611388565b60408051808303601f19018152828252805160209182012060e084018352808452338285018181528585018d8152606087018e815260ff89811660808a019081524260a08b01908152600060c08c018181528982526003808c528c83209d518e55975160018e0180546001600160a01b0319166001600160a01b0390921691909117905595516002808e01919091559451968c0196909655905160048b01805460ff1990811692909416919091179055516005808b0191909155925160069099018054909116981515989098179097559181529490925291832082905580549196508992909161075c9084906113d1565b9091555061079690506001600160a01b037f0000000000000000000000000000000000000000000000000000000000000000163389610e89565b604051878152339085907f5a3727ca57436d1d850413574b206ec449b098888ab84407f441b37963e0e5dd9060200160405180910390a35050506107e7600160008051602061149283398151915255565b9392505050565b6107f6610ec3565b6108006000610ef0565b565b6001600160a01b03811660009081526002602052604081205481908190606090819015610886576000806000604051806040016040528060048152602001636e6f6e6560e01b815250604051806040016040528060138152602001724c4f414e5f414c52454144595f41435449564560681b81525094509450945094509450610b59565b600154604051630d47875d60e41b81526001600160a01b038881166004830152600092169063d47875d090602401602060405180830381865afa1580156108d1573d6000803e3d6000fd5b505050506040513d601f19601f820116820180604052508101906108f591906113e4565b60015460405163b531651560e01b81526001600160a01b038a8116600483015292935091169063b531651590602401600060405180830381865afa158015610941573d6000803e3d6000fd5b505050506040513d6000823e601f3d908101601f191682016040526109699190810190611408565b80516020808301919091206040805180820190915260058152647072696d6560d81b9201919091529093507fe2c52380fbb79a649bea1963c58a1d24eb5319a2dda453ec3f21b53bdfbb968181016109d057681b1ae4d6e2ef5000009550600f9450610aef565b604080518082019091526007815266313ab4b63232b960c91b6020909101527f853cf9a9fae6fb1f943f10a03f55e5cccb19297db47c01a0b5822e4c6de745d88101610a2b57680ad78ebc5ac6200000955060149450610aef565b60408051808201909152600781526639ba30b93a32b960c91b6020909101527fbe5bd18602bbd1e29962154170c01cd0e4abd99a557afa633e076d9347d081648101610a86576802b5e3af16b18800009550601e9450610aef565b6000806000604051806040016040528060048152602001636e6f6e6560e01b8152506040518060400160405280601781526020017f494e53554646494349454e545f474f4f445f53434f5245000000000000000000815250965096509650965096505050610b59565b856005541015610b4057505060408051808201909152601b81527f504f4f4c5f494e53554646494349454e545f4c495155494449545900000000006020820152600095508594508493509050610b59565b6001965060405180602001604052806000815250925050505b91939590929450565b610b6a610ec3565b6001600160a01b03919091166000908152600460205260409020805460ff1916911515919091179055565b610b9d610e6d565b610bd26001600160a01b037f000000000000000000000000000000000000000000000000000000000000000016333084610f40565b8060056000828254610be49190611445565b909155505060405181815233907fea74918ad47929fae6a873ab3425581f01a3cd9c602bd9ed21348414c2c8bc119060200160405180910390a2610c35600160008051602061149283398151915255565b50565b3360009081526004602052604081205460ff1680610c6057506000546001600160a01b031633145b610c9d5760405162461bcd60e51b815260206004820152600e60248201526d139bdd08185d5d1a1bdc9a5e995960921b6044820152606401610508565b610ca5610e6d565b6000838152600360205260409020600681015460ff1615610cf95760405162461bcd60e51b815260206004820152600e60248201526d105b1c9958591e481c995c185a5960921b6044820152606401610508565b6004810154606490610d0e9060ff1685611458565b610d18919061146f565b91508060030154821115610d2e57806003015491505b81816003016000828254610d4291906113d1565b925050819055508160056000828254610d5b9190611445565b9091555050600381015460405185917ff4b0aa7387e5acb32d5c7c79ac00c2fb8969de201e771c6c97189cbe58bc949a91610d9e91868252602082015260400190565b60405180910390a28060030154600003610e145760068101805460ff19166001908117909155810180546001600160a01b0390811660009081526002602052604080822082905592549251929091169186917f9e436a16a3b183e9ddf01d97c7cf75bf4f8fa8c73869012679c5177597f4524d91a35b50610e2c600160008051602061149283398151915255565b92915050565b610e3a610ec3565b6001600160a01b038116610e6457604051631e4fbdf760e01b815260006004820152602401610508565b610c3581610ef0565b610e75610f7c565b600260008051602061149283398151915255565b610e968383836001610fac565b610ebe57604051635274afe760e01b81526001600160a01b0384166004820152602401610508565b505050565b6000546001600160a01b031633146108005760405163118cdaa760e01b8152336004820152602401610508565b600080546001600160a01b038381166001600160a01b0319831681178455604051919092169283917f8be0079c531659141344cd1fd0a4f28419497f9722a3daafe3b4186f6b6457e09190a35050565b610f4e848484846001611012565b610f7657604051635274afe760e01b81526001600160a01b0385166004820152602401610508565b50505050565b6000805160206114928339815191525460020361080057604051633ee5aeb560e01b815260040160405180910390fd5b60405163a9059cbb60e01b60008181526001600160a01b038616600452602485905291602083604481808b5af192506001600051148316611006578383151615610ff9573d6000823e3d81fd5b6000873b113d1516831692505b60405250949350505050565b6040516323b872dd60e01b60008181526001600160a01b038781166004528616602452604485905291602083606481808c5af192506001600051148316611072578383151615611065573d6000823e3d81fd5b6000883b113d1516831692505b60405250600060605295945050505050565b60008060006040848603121561109957600080fd5b83359250602084013567ffffffffffffffff808211156110b857600080fd5b818601915086601f8301126110cc57600080fd5b8135818111156110db57600080fd5b8760208285010111156110ed57600080fd5b6020830194508093505050509250925092565b80356001600160a01b038116811461111757600080fd5b919050565b60006020828403121561112e57600080fd5b6107e782611100565b60005b8381101561115257818101518382015260200161113a565b50506000910152565b60008151808452611173816020860160208601611137565b601f01601f19169290920160200192915050565b851515815284602082015260ff8416604082015260a0606082015260006111b160a083018561115b565b82810360808401526111c3818561115b565b98975050505050505050565b6000602082840312156111e157600080fd5b5035919050565b8015158114610c3557600080fd5b6000806040838503121561120957600080fd5b61121283611100565b91506020830135611222816111e8565b809150509250929050565b6000806040838503121561124057600080fd5b50508035926020909101359150565b634e487b7160e01b600052604160045260246000fd5b600082601f83011261127657600080fd5b815167ffffffffffffffff808211156112915761129161124f565b604051601f8301601f19908116603f011681019082821181831017156112b9576112b961124f565b816040528381528660208588010111156112d257600080fd5b6112e3846020830160208901611137565b9695505050505050565b600080600080600060a0868803121561130557600080fd5b8551611310816111e8565b60208701516040880151919650945060ff8116811461132e57600080fd5b606087015190935067ffffffffffffffff8082111561134c57600080fd5b61135889838a01611265565b9350608088015191508082111561136e57600080fd5b5061137b88828901611265565b9150509295509295909350565b6bffffffffffffffffffffffff198560601b16815283601482015281836034830137600091016034019081529392505050565b634e487b7160e01b600052601160045260246000fd5b81810381811115610e2c57610e2c6113bb565b6000602082840312156113f657600080fd5b815161ffff811681146107e757600080fd5b60006020828403121561141a57600080fd5b815167ffffffffffffffff81111561143157600080fd5b61143d84828501611265565b949350505050565b80820180821115610e2c57610e2c6113bb565b8082028115828204841417610e2c57610e2c6113bb565b60008261148c57634e487b7160e01b600052601260045260246000fd5b50049056fe9b779b17422d0df92223018b32b4d1fa46e071723d6817e2486d003becc55f00a264697066735822122052e309830a4aab814dd560781db30c17a1024da3558a4b2f1d1804b204059c5364736f6c63430008180033",
  "linkReferences": {},
  "deployedLinkReferences": {}
}