{
  "_format": "hh-sol-artifact-1",
  "contractName": "Account",
  "sourceName": "contracts/Account.sol",
  "abi": [
    {
      "anonymous": false,
      "inputs": [
        {
          "indexed": true,
          "internalType": "address",
          "name": "wallet",
          "type": "address"
        },
        {
          "indexed": false,
          "internalType": "uint256",
          "name": "timestamp",
          "type": "uint256"
        }
      ],
      "name": "AccountCreated",
      "type": "event"
    },
    {
      "inputs": [
        {
          "internalType": "uint256",
          "name": "index",
          "type": "uint256"
        }
      ],
      "name": "accountAt",
      "outputs": [
        {
          "internalType": "address",
          "name": "",
          "type": "address"
        }
      ],
      "stateMutability": "view",
      "type": "function"
    },
    {
      "inputs": [],
      "name": "createAccount",
      "outputs": [],
      "stateMutability": "nonpayable",
      "type": "function"
    },
    {
      "inputs": [
        {
          "internalType": "address",
          "name": "wallet",
          "type": "address"
        }
      ],
      "name": "exists",
      "outputs": [
        {
          "internalType": "bool",
          "name": "",
          "type": "bool"
        }
      ],
      "stateMutability": "view",
      "type": "function"
    },
    {
      "inputs": [
        {
          "internalType": "address",
          "name": "",
          "type": "address"
        }
      ],
      "name": "hasAccount",
      "outputs": [
        {
          "internalType": "bool",
          "name": "",
          "type": "bool"
        }
      ],
      "stateMutability": "view",
      "type": "function"
    },
    {
      "inputs": [],
      "name": "totalAccounts",
      "outputs": [
        {
          "internalType": "uint256",
          "name": "",
          "type": "uint256"
        }
      ],
      "stateMutability": "view",
      "type": "function"
    }
  ],
  "bytecode": "0x608060405234801561001057600080fd5b506102ad806100206000396000f3fe608060405234801561001057600080fd5b50600436106100575760003560e01c806358451f971461005c5780639dca362f14610072578063c8e40fbf1461007c578063e51442e3146100af578063f6a3d24e146100da575b600080fd5b6001546040519081526020015b60405180910390f35b61007a610106565b005b61009f61008a366004610218565b60006020819052908152604090205460ff1681565b6040519015158152602001610069565b6100c26100bd366004610248565b6101e8565b6040516001600160a01b039091168152602001610069565b61009f6100e8366004610218565b6001600160a01b031660009081526020819052604090205460ff1690565b3360009081526020819052604090205460ff161561015b5760405162461bcd60e51b815260206004820152600e60248201526d4163636f756e742065786973747360901b604482015260640160405180910390fd5b33600081815260208181526040808320805460ff191660019081179091558054808201825593527fb10e2d527612073b26eecdfd717e6a320cf44b4afac2b0732d9fcbe2b7fa0cf690920180546001600160a01b0319168417905590514281527f7325fb14450d3e5eb288c620b4ff1d6b43a41b33b4a4f143ae88cd4c12f99ea3910160405180910390a2565b6000600182815481106101fd576101fd610261565b6000918252602090912001546001600160a01b031692915050565b60006020828403121561022a57600080fd5b81356001600160a01b038116811461024157600080fd5b9392505050565b60006020828403121561025a57600080fd5b5035919050565b634e487b7160e01b600052603260045260246000fdfea264697066735822122098a823d1b7e6b8bc24005e71be0118cffe4f3ac7deb1928ede357d32fdde926464736f6c63430008180033",
  "linkReferences": {},
  "deployedLinkReferences": {}
}