{
  "_format": "hh-sol-artifact-1",
  "contractName": "VeraGigFeeRouter",
  "sourceName": "contracts/VeraGigFeeRouter.sol",
  "abi": [
    {
      "inputs": [
        {
          "internalType": "address",
          "name": "_ubiPool",
          "type": "address"
        },
        {
          "internalType": "address",
          "name": "_treasury",
          "type": "address"
        }
      ],
      "stateMutability": "nonpayable",
      "type": "constructor"
    },
    {
      "inputs": [
        {
          "internalType": "address",
          "name": "owner",
          "type": "address"
        }
      ],
      "name": "OwnableInvalidOwner",
      "type": "error"
    },
    {
      "inputs": [
        {
          "internalType": "address",
          "name": "account",
          "type": "address"
        }
      ],
      "name": "OwnableUnauthorizedAccount",
      "type": "error"
    },
    {
      "inputs": [
        {
          "internalType": "address",
          "name": "token",
          "type": "address"
        }
      ],
      "name": "SafeERC20FailedOperation",
      "type": "error"
    },
    {
      "anonymous": false,
      "inputs": [
        {
          "indexed": true,
          "internalType": "bytes32",
          "name": "taskId",
          "type": "bytes32"
        },
        {
          "indexed": true,
          "internalType": "address",
          "name": "token",
          "type": "address"
        },
        {
          "indexed": false,
          "internalType": "uint256",
          "name": "settlementAmount",
          "type": "uint256"
        },
        {
          "indexed": false,
          "internalType": "uint256",
          "name": "ubiContribution",
          "type": "uint256"
        },
        {
          "indexed": false,
          "internalType": "uint256",
          "name": "treasuryContribution",
          "type": "uint256"
        }
      ],
      "name": "FeeRouted",
      "type": "event"
    },
    {
      "anonymous": false,
      "inputs": [
        {
          "indexed": true,
          "internalType": "address",
          "name": "previousOwner",
          "type": "address"
        },
        {
          "indexed": true,
          "internalType": "address",
          "name": "newOwner",
          "type": "address"
        }
      ],
      "name": "OwnershipTransferred",
      "type": "event"
    },
    {
      "inputs": [],
      "name": "BPS_DENOM",
      "outputs": [
        {
          "internalType": "uint256",
          "name": "",
          "type": "uint256"
        }
      ],
      "stateMutability": "view",
      "type": "function"
    },
    {
      "inputs": [],
      "name": "FEE_BPS",
      "outputs": [
        {
          "internalType": "uint256",
          "name": "",
          "type": "uint256"
        }
      ],
      "stateMutability": "view",
      "type": "function"
    },
    {
      "inputs": [],
      "name": "TREASURY_PCT",
      "outputs": [
        {
          "internalType": "uint256",
          "name": "",
          "type": "uint256"
        }
      ],
      "stateMutability": "view",
      "type": "function"
    },
    {
      "inputs": [],
      "name": "UBI_POOL_PCT",
      "outputs": [
        {
          "internalType": "uint256",
          "name": "",
          "type": "uint256"
        }
      ],
      "stateMutability": "view",
      "type": "function"
    },
    {
      "inputs": [
        {
          "internalType": "address",
          "name": "",
          "type": "address"
        }
      ],
      "name": "authorizedCallers",
      "outputs": [
        {
          "internalType": "bool",
          "name": "",
          "type": "bool"
        }
      ],
      "stateMutability": "view",
      "type": "function"
    },
    {
      "inputs": [],
      "name": "owner",
      "outputs": [
        {
          "internalType": "address",
          "name": "",
          "type": "address"
        }
      ],
      "stateMutability": "view",
      "type": "function"
    },
    {
      "inputs": [],
      "name": "renounceOwnership",
      "outputs": [],
      "stateMutability": "nonpayable",
      "type": "function"
    },
    {
      "inputs": [
        {
          "internalType": "bytes32",
          "name": "taskId",
          "type": "bytes32"
        },
        {
          "internalType": "address",
          "name": "token",
          "type": "address"
        },
        {
          "internalType": "uint256",
          "name": "settlementAmount",
          "type": "uint256"
        }
      ],
      "name": "routeFee",
      "outputs": [],
      "stateMutability": "nonpayable",
      "type": "function"
    },
    {
      "inputs": [
        {
          "internalType": "address",
          "name": "_ubiPool",
          "type": "address"
        },
        {
          "internalType": "address",
          "name": "_treasury",
          "type": "address"
        }
      ],
      "name": "setAddresses",
      "outputs": [],
      "stateMutability": "nonpayable",
      "type": "function"
    },
    {
      "inputs": [
        {
          "internalType": "address",
          "name": "caller",
          "type": "address"
        },
        {
          "internalType": "bool",
          "name": "authorized",
          "type": "bool"
        }
      ],
      "name": "setAuthorizedCaller",
      "outputs": [],
      "stateMutability": "nonpayable",
      "type": "function"
    },
    {
      "inputs": [
        {
          "internalType": "address",
          "name": "newOwner",
          "type": "address"
        }
      ],
      "name": "transferOwnership",
      "outputs": [],
      "stateMutability": "nonpayable",
      "type": "function"
    },
    {
      "inputs": [],
      "name": "treasury",
      "outputs": [
        {
          "internalType": "address",
          "name": "",
          "type": "address"
        }
      ],
      "stateMutability": "view",
      "type": "function"
    },
    {
      "inputs": [],
      "name": "ubiPool",
      "outputs": [
        {
          "internalType": "address",
          "name": "",
          "type": "address"
        }
      ],
      "stateMutability": "view",
      "type": "function"
    }
  ],
  "bytecode": "0x608060405234801561001057600080fd5b5060405161086b38038061086b83398101604081905261002f916100fc565b338061005557604051631e4fbdf760e01b81526000600482015260240160405180910390fd5b61005e81610090565b50600180546001600160a01b039384166001600160a01b0319918216179091556002805492909316911617905561012f565b600080546001600160a01b038381166001600160a01b0319831681178455604051919092169283917f8be0079c531659141344cd1fd0a4f28419497f9722a3daafe3b4186f6b6457e09190a35050565b80516001600160a01b03811681146100f757600080fd5b919050565b6000806040838503121561010f57600080fd5b610118836100e0565b9150610126602084016100e0565b90509250929050565b61072d8061013e6000396000f3fe608060405234801561001057600080fd5b50600436106100cf5760003560e01c8063715018a61161008c5780639ffacd1d116100665780639ffacd1d146100e9578063a06f7da7146101aa578063bf333f2c146101bd578063f2fde38b146101c557600080fd5b8063715018a61461017e5780638da5cb5b1461018657806390107afe1461019757600080fd5b80630b6d86dd146100d457806333baf497146100e9578063454bbd2914610104578063536fff6c1461011757806361d027b31461014a5780636637e38c14610175575b600080fd5b6100e76100e23660046105c9565b6101d8565b005b6100f1603281565b6040519081526020015b60405180910390f35b6100e76101123660046105fe565b610327565b61013a61012536600461063a565b60036020526000908152604090205460ff1681565b60405190151581526020016100fb565b60025461015d906001600160a01b031681565b6040516001600160a01b0390911681526020016100fb565b6100f161271081565b6100e761035a565b6000546001600160a01b031661015d565b6100e76101a536600461065c565b61036e565b60015461015d906001600160a01b031681565b6100f160c881565b6100e76101d336600461063a565b6103a4565b3360009081526003602052604090205460ff168061020057506000546001600160a01b031633145b6102425760405162461bcd60e51b815260206004820152600e60248201526d139bdd08185d5d1a1bdc9a5e995960921b60448201526064015b60405180910390fd5b600061271061025260c8846106a5565b61025c91906106c2565b90506102736001600160a01b0384163330846103e2565b600060646102826032846106a5565b61028c91906106c2565b9050600061029a82846106e4565b6001549091506102b7906001600160a01b0387811691168461041e565b6002546102d1906001600160a01b0387811691168361041e565b60408051858152602081018490529081018290526001600160a01b0386169087907f80642382b1c75aa2e78782d96e7afb9da0dd4d09c3f65055b27b6492d56d82219060600160405180910390a3505050505050565b61032f610458565b6001600160a01b03919091166000908152600360205260409020805460ff1916911515919091179055565b610362610458565b61036c6000610485565b565b610376610458565b600180546001600160a01b039384166001600160a01b03199182161790915560028054929093169116179055565b6103ac610458565b6001600160a01b0381166103d657604051631e4fbdf760e01b815260006004820152602401610239565b6103df81610485565b50565b6103f08484848460016104d5565b61041857604051635274afe760e01b81526001600160a01b0385166004820152602401610239565b50505050565b61042b8383836001610547565b61045357604051635274afe760e01b81526001600160a01b0384166004820152602401610239565b505050565b6000546001600160a01b0316331461036c5760405163118cdaa760e01b8152336004820152602401610239565b600080546001600160a01b038381166001600160a01b0319831681178455604051919092169283917f8be0079c531659141344cd1fd0a4f28419497f9722a3daafe3b4186f6b6457e09190a35050565b6040516323b872dd60e01b60008181526001600160a01b038781166004528616602452604485905291602083606481808c5af192506001600051148316610535578383151615610528573d6000823e3d81fd5b6000883b113d1516831692505b60405250600060605295945050505050565b60405163a9059cbb60e01b60008181526001600160a01b038616600452602485905291602083604481808b5af1925060016000511483166105a1578383151615610594573d6000823e3d81fd5b6000873b113d1516831692505b60405250949350505050565b80356001600160a01b03811681146105c457600080fd5b919050565b6000806000606084860312156105de57600080fd5b833592506105ee602085016105ad565b9150604084013590509250925092565b6000806040838503121561061157600080fd5b61061a836105ad565b91506020830135801515811461062f57600080fd5b809150509250929050565b60006020828403121561064c57600080fd5b610655826105ad565b9392505050565b6000806040838503121561066f57600080fd5b610678836105ad565b9150610686602084016105ad565b90509250929050565b634e487b7160e01b600052601160045260246000fd5b80820281158282048414176106bc576106bc61068f565b92915050565b6000826106df57634e487b7160e01b600052601260045260246000fd5b500490565b818103818111156106bc576106bc61068f56fea2646970667358221220c44120e4888013f632414ca09db9601905f999f8b5b464886006f80f0ab7311164736f6c63430008180033",
  "linkReferences": {},
  "deployedLinkReferences": {}
}